{
    "contractName": "StableCoin",
    "abi": [
        {
            "inputs": [],
            "stateMutability": "nonpayable",
            "type": "constructor"
        },
        {
            "anonymous": false,
            "inputs": [
                {
                    "indexed": true,
                    "internalType": "address",
                    "name": "owner",
                    "type": "address"
                },
                {
                    "indexed": true,
                    "internalType": "address",
                    "name": "spender",
                    "type": "address"
                },
                {
                    "indexed": false,
                    "internalType": "uint256",
                    "name": "value",
                    "type": "uint256"
                }
            ],
            "name": "Approval",
            "type": "event"
        },
        {
            "anonymous": false,
            "inputs": [
                {
                    "indexed": false,
                    "internalType": "uint8",
                    "name": "version",
                    "type": "uint8"
                }
            ],
            "name": "Initialized",
            "type": "event"
        },
        {
            "anonymous": false,
            "inputs": [
                {
                    "indexed": true,
                    "internalType": "address",
                    "name": "previousOwner",
                    "type": "address"
                },
                {
                    "indexed": true,
                    "internalType": "address",
                    "name": "newOwner",
                    "type": "address"
                }
            ],
            "name": "OwnershipTransferred",
            "type": "event"
        },
        {
            "anonymous": false,
            "inputs": [
                {
                    "indexed": false,
                    "internalType": "address",
                    "name": "account",
                    "type": "address"
                }
            ],
            "name": "Paused",
            "type": "event"
        },
        {
            "anonymous": false,
            "inputs": [
                {
                    "indexed": true,
                    "internalType": "enum Common.RequestType",
                    "name": "reqType",
                    "type": "uint8"
                },
                {
                    "indexed": true,
                    "internalType": "uint256",
                    "name": "reqId",
                    "type": "uint256"
                },
                {
                    "indexed": true,
                    "internalType": "address",
                    "name": "signatoryAddress",
                    "type": "address"
                },
                {
                    "indexed": false,
                    "internalType": "bool",
                    "name": "isApproved",
                    "type": "bool"
                }
            ],
            "name": "RequestApproval",
            "type": "event"
        },
        {
            "anonymous": false,
            "inputs": [
                {
                    "indexed": true,
                    "internalType": "enum Common.RequestType",
                    "name": "reqType",
                    "type": "uint8"
                },
                {
                    "indexed": true,
                    "internalType": "uint256",
                    "name": "reqId",
                    "type": "uint256"
                }
            ],
            "name": "RequestCancelled",
            "type": "event"
        },
        {
            "anonymous": false,
            "inputs": [
                {
                    "indexed": true,
                    "internalType": "enum Common.RequestType",
                    "name": "reqType",
                    "type": "uint8"
                },
                {
                    "indexed": true,
                    "internalType": "uint256",
                    "name": "subType",
                    "type": "uint256"
                },
                {
                    "indexed": true,
                    "internalType": "address",
                    "name": "ownerAddress",
                    "type": "address"
                },
                {
                    "indexed": false,
                    "internalType": "uint256",
                    "name": "reqId",
                    "type": "uint256"
                }
            ],
            "name": "RequestCreated",
            "type": "event"
        },
        {
            "anonymous": false,
            "inputs": [
                {
                    "indexed": true,
                    "internalType": "enum Common.RequestType",
                    "name": "reqType",
                    "type": "uint8"
                },
                {
                    "indexed": true,
                    "internalType": "uint256",
                    "name": "reqId",
                    "type": "uint256"
                }
            ],
            "name": "RequestUpdated",
            "type": "event"
        },
        {
            "anonymous": false,
            "inputs": [
                {
                    "indexed": true,
                    "internalType": "enum Common.SignatoryControlRequestType",
                    "name": "reqType",
                    "type": "uint8"
                },
                {
                    "indexed": true,
                    "internalType": "uint256",
                    "name": "reqId",
                    "type": "uint256"
                },
                {
                    "indexed": false,
                    "internalType": "address[]",
                    "name": "signatoryAddress",
                    "type": "address[]"
                }
            ],
            "name": "SignatoriesUpdated",
            "type": "event"
        },
        {
            "anonymous": false,
            "inputs": [
                {
                    "indexed": true,
                    "internalType": "enum Common.RequestType",
                    "name": "reqType",
                    "type": "uint8"
                },
                {
                    "indexed": true,
                    "internalType": "uint256",
                    "name": "reqId",
                    "type": "uint256"
                },
                {
                    "indexed": false,
                    "internalType": "uint256[]",
                    "name": "newThresholds",
                    "type": "uint256[]"
                }
            ],
            "name": "ThresholdUpdated",
            "type": "event"
        },
        {
            "anonymous": false,
            "inputs": [
                {
                    "indexed": true,
                    "internalType": "address",
                    "name": "from",
                    "type": "address"
                },
                {
                    "indexed": true,
                    "internalType": "address",
                    "name": "to",
                    "type": "address"
                },
                {
                    "indexed": false,
                    "internalType": "uint256",
                    "name": "value",
                    "type": "uint256"
                }
            ],
            "name": "Transfer",
            "type": "event"
        },
        {
            "anonymous": false,
            "inputs": [
                {
                    "indexed": false,
                    "internalType": "address",
                    "name": "account",
                    "type": "address"
                }
            ],
            "name": "Unpaused",
            "type": "event"
        },
        {
            "inputs": [
                {
                    "internalType": "address",
                    "name": "owner",
                    "type": "address"
                },
                {
                    "internalType": "address",
                    "name": "spender",
                    "type": "address"
                }
            ],
            "name": "allowance",
            "outputs": [
                {
                    "internalType": "uint256",
                    "name": "",
                    "type": "uint256"
                }
            ],
            "stateMutability": "view",
            "type": "function"
        },
        {
            "inputs": [
                {
                    "internalType": "address",
                    "name": "spender",
                    "type": "address"
                },
                {
                    "internalType": "uint256",
                    "name": "amount",
                    "type": "uint256"
                }
            ],
            "name": "approve",
            "outputs": [
                {
                    "internalType": "bool",
                    "name": "",
                    "type": "bool"
                }
            ],
            "stateMutability": "nonpayable",
            "type": "function"
        },
        {
            "inputs": [
                {
                    "internalType": "address",
                    "name": "account",
                    "type": "address"
                }
            ],
            "name": "balanceOf",
            "outputs": [
                {
                    "internalType": "uint256",
                    "name": "",
                    "type": "uint256"
                }
            ],
            "stateMutability": "view",
            "type": "function"
        },
        {
            "inputs": [
                {
                    "internalType": "enum Common.RequestType",
                    "name": "reqType_",
                    "type": "uint8"
                },
                {
                    "internalType": "uint256",
                    "name": "id_",
                    "type": "uint256"
                }
            ],
            "name": "cancelRequest",
            "outputs": [],
            "stateMutability": "nonpayable",
            "type": "function"
        },
        {
            "inputs": [
                {
                    "internalType": "enum Common.SignatoryControlRequestType",
                    "name": "reqSubType_",
                    "type": "uint8"
                },
                {
                    "internalType": "uint256",
                    "name": "id_",
                    "type": "uint256"
                },
                {
                    "internalType": "address[]",
                    "name": "users_",
                    "type": "address[]"
                }
            ],
            "name": "createSignatoryControlRequest",
            "outputs": [],
            "stateMutability": "nonpayable",
            "type": "function"
        },
        {
            "inputs": [
                {
                    "internalType": "enum Common.RequestType",
                    "name": "reqType_",
                    "type": "uint8"
                },
                {
                    "internalType": "uint256",
                    "name": "id_",
                    "type": "uint256"
                },
                {
                    "internalType": "uint256[]",
                    "name": "thresholds_",
                    "type": "uint256[]"
                }
            ],
            "name": "createThresholdControlRequest",
            "outputs": [],
            "stateMutability": "nonpayable",
            "type": "function"
        },
        {
            "inputs": [
                {
                    "internalType": "enum Common.TokenSupplyControlRequestType",
                    "name": "reqSubType_",
                    "type": "uint8"
                },
                {
                    "internalType": "uint256",
                    "name": "id_",
                    "type": "uint256"
                },
                {
                    "internalType": "uint256",
                    "name": "amount_",
                    "type": "uint256"
                },
                {
                    "internalType": "address",
                    "name": "to_",
                    "type": "address"
                }
            ],
            "name": "createTokenSupplyControlRequest",
            "outputs": [],
            "stateMutability": "nonpayable",
            "type": "function"
        },
        {
            "inputs": [
                {
                    "internalType": "enum Common.TransactionControlRequestType",
                    "name": "reqSubType_",
                    "type": "uint8"
                },
                {
                    "internalType": "uint256",
                    "name": "id_",
                    "type": "uint256"
                }
            ],
            "name": "createTransactionControlRequest",
            "outputs": [],
            "stateMutability": "nonpayable",
            "type": "function"
        },
        {
            "inputs": [],
            "name": "decimals",
            "outputs": [
                {
                    "internalType": "uint8",
                    "name": "",
                    "type": "uint8"
                }
            ],
            "stateMutability": "view",
            "type": "function"
        },
        {
            "inputs": [
                {
                    "internalType": "address",
                    "name": "spender",
                    "type": "address"
                },
                {
                    "internalType": "uint256",
                    "name": "subtractedValue",
                    "type": "uint256"
                }
            ],
            "name": "decreaseAllowance",
            "outputs": [
                {
                    "internalType": "bool",
                    "name": "",
                    "type": "bool"
                }
            ],
            "stateMutability": "nonpayable",
            "type": "function"
        },
        {
            "inputs": [
                {
                    "internalType": "enum Common.RequestType",
                    "name": "reqType_",
                    "type": "uint8"
                },
                {
                    "internalType": "uint256",
                    "name": "id_",
                    "type": "uint256"
                }
            ],
            "name": "execute",
            "outputs": [],
            "stateMutability": "nonpayable",
            "type": "function"
        },
        {
            "inputs": [
                {
                    "internalType": "uint256",
                    "name": "id_",
                    "type": "uint256"
                }
            ],
            "name": "getSignatoryControlRequest",
            "outputs": [
                {
                    "components": [
                        {
                            "internalType": "uint256",
                            "name": "id",
                            "type": "uint256"
                        },
                        {
                            "internalType": "enum Common.SignatoryControlRequestType",
                            "name": "subType",
                            "type": "uint8"
                        },
                        {
                            "internalType": "address[]",
                            "name": "wallets",
                            "type": "address[]"
                        },
                        {
                            "internalType": "address",
                            "name": "owner",
                            "type": "address"
                        },
                        {
                            "internalType": "address[]",
                            "name": "approvals",
                            "type": "address[]"
                        },
                        {
                            "internalType": "enum Common.RequestStatus",
                            "name": "status",
                            "type": "uint8"
                        }
                    ],
                    "internalType": "struct Common.SignatoryControlRequests",
                    "name": "",
                    "type": "tuple"
                }
            ],
            "stateMutability": "view",
            "type": "function"
        },
        {
            "inputs": [],
            "name": "getSignatoryList",
            "outputs": [
                {
                    "internalType": "address[]",
                    "name": "",
                    "type": "address[]"
                }
            ],
            "stateMutability": "view",
            "type": "function"
        },
        {
            "inputs": [
                {
                    "internalType": "uint256",
                    "name": "id_",
                    "type": "uint256"
                }
            ],
            "name": "getThresholdControlRequest",
            "outputs": [
                {
                    "components": [
                        {
                            "internalType": "uint256",
                            "name": "id",
                            "type": "uint256"
                        },
                        {
                            "internalType": "enum Common.RequestType",
                            "name": "reqType",
                            "type": "uint8"
                        },
                        {
                            "internalType": "enum Common.ThresholdControlRequestType",
                            "name": "subType",
                            "type": "uint8"
                        },
                        {
                            "internalType": "uint256[]",
                            "name": "thresholds",
                            "type": "uint256[]"
                        },
                        {
                            "internalType": "address",
                            "name": "owner",
                            "type": "address"
                        },
                        {
                            "internalType": "address[]",
                            "name": "approvals",
                            "type": "address[]"
                        },
                        {
                            "internalType": "enum Common.RequestStatus",
                            "name": "status",
                            "type": "uint8"
                        }
                    ],
                    "internalType": "struct Common.ThresholdControlRequests",
                    "name": "",
                    "type": "tuple"
                }
            ],
            "stateMutability": "view",
            "type": "function"
        },
        {
            "inputs": [
                {
                    "internalType": "enum Common.RequestType",
                    "name": "reqType_",
                    "type": "uint8"
                }
            ],
            "name": "getThresholds",
            "outputs": [
                {
                    "internalType": "uint256[]",
                    "name": "",
                    "type": "uint256[]"
                }
            ],
            "stateMutability": "view",
            "type": "function"
        },
        {
            "inputs": [
                {
                    "internalType": "uint256",
                    "name": "id_",
                    "type": "uint256"
                }
            ],
            "name": "getTokenSupplyControlRequest",
            "outputs": [
                {
                    "components": [
                        {
                            "internalType": "uint256",
                            "name": "id",
                            "type": "uint256"
                        },
                        {
                            "internalType": "enum Common.TokenSupplyControlRequestType",
                            "name": "subType",
                            "type": "uint8"
                        },
                        {
                            "internalType": "uint256",
                            "name": "amount",
                            "type": "uint256"
                        },
                        {
                            "internalType": "address",
                            "name": "wallet",
                            "type": "address"
                        },
                        {
                            "internalType": "address",
                            "name": "owner",
                            "type": "address"
                        },
                        {
                            "internalType": "address[]",
                            "name": "approvals",
                            "type": "address[]"
                        },
                        {
                            "internalType": "enum Common.RequestStatus",
                            "name": "status",
                            "type": "uint8"
                        }
                    ],
                    "internalType": "struct Common.TokenSupplyControlRequests",
                    "name": "",
                    "type": "tuple"
                }
            ],
            "stateMutability": "view",
            "type": "function"
        },
        {
            "inputs": [
                {
                    "internalType": "uint256",
                    "name": "id_",
                    "type": "uint256"
                }
            ],
            "name": "getTransactionControlRequest",
            "outputs": [
                {
                    "components": [
                        {
                            "internalType": "uint256",
                            "name": "id",
                            "type": "uint256"
                        },
                        {
                            "internalType": "enum Common.TransactionControlRequestType",
                            "name": "subType",
                            "type": "uint8"
                        },
                        {
                            "internalType": "address",
                            "name": "owner",
                            "type": "address"
                        },
                        {
                            "internalType": "address[]",
                            "name": "approvals",
                            "type": "address[]"
                        },
                        {
                            "internalType": "enum Common.RequestStatus",
                            "name": "status",
                            "type": "uint8"
                        }
                    ],
                    "internalType": "struct Common.TransactionControlRequests",
                    "name": "",
                    "type": "tuple"
                }
            ],
            "stateMutability": "view",
            "type": "function"
        },
        {
            "inputs": [
                {
                    "internalType": "address",
                    "name": "spender",
                    "type": "address"
                },
                {
                    "internalType": "uint256",
                    "name": "addedValue",
                    "type": "uint256"
                }
            ],
            "name": "increaseAllowance",
            "outputs": [
                {
                    "internalType": "bool",
                    "name": "",
                    "type": "bool"
                }
            ],
            "stateMutability": "nonpayable",
            "type": "function"
        },
        {
            "inputs": [
                {
                    "internalType": "string",
                    "name": "name_",
                    "type": "string"
                },
                {
                    "internalType": "string",
                    "name": "symbol_",
                    "type": "string"
                },
                {
                    "internalType": "uint8",
                    "name": "decimals_",
                    "type": "uint8"
                },
                {
                    "internalType": "address",
                    "name": "governanceToken_",
                    "type": "address"
                },
                {
                    "internalType": "address",
                    "name": "owner_",
                    "type": "address"
                }
            ],
            "name": "initialize",
            "outputs": [],
            "stateMutability": "nonpayable",
            "type": "function"
        },
        {
            "inputs": [],
            "name": "name",
            "outputs": [
                {
                    "internalType": "string",
                    "name": "",
                    "type": "string"
                }
            ],
            "stateMutability": "view",
            "type": "function"
        },
        {
            "inputs": [],
            "name": "owner",
            "outputs": [
                {
                    "internalType": "address",
                    "name": "",
                    "type": "address"
                }
            ],
            "stateMutability": "view",
            "type": "function"
        },
        {
            "inputs": [],
            "name": "paused",
            "outputs": [
                {
                    "internalType": "bool",
                    "name": "",
                    "type": "bool"
                }
            ],
            "stateMutability": "view",
            "type": "function"
        },
        {
            "inputs": [],
            "name": "renounceOwnership",
            "outputs": [],
            "stateMutability": "nonpayable",
            "type": "function"
        },
        {
            "inputs": [
                {
                    "internalType": "address",
                    "name": "user_",
                    "type": "address"
                },
                {
                    "internalType": "uint256",
                    "name": "amount_",
                    "type": "uint256"
                }
            ],
            "name": "swap",
            "outputs": [],
            "stateMutability": "nonpayable",
            "type": "function"
        },
        {
            "inputs": [],
            "name": "symbol",
            "outputs": [
                {
                    "internalType": "string",
                    "name": "",
                    "type": "string"
                }
            ],
            "stateMutability": "view",
            "type": "function"
        },
        {
            "inputs": [],
            "name": "totalSupply",
            "outputs": [
                {
                    "internalType": "uint256",
                    "name": "",
                    "type": "uint256"
                }
            ],
            "stateMutability": "view",
            "type": "function"
        },
        {
            "inputs": [
                {
                    "internalType": "address",
                    "name": "to",
                    "type": "address"
                },
                {
                    "internalType": "uint256",
                    "name": "amount",
                    "type": "uint256"
                }
            ],
            "name": "transfer",
            "outputs": [
                {
                    "internalType": "bool",
                    "name": "",
                    "type": "bool"
                }
            ],
            "stateMutability": "nonpayable",
            "type": "function"
        },
        {
            "inputs": [
                {
                    "internalType": "address",
                    "name": "from",
                    "type": "address"
                },
                {
                    "internalType": "address",
                    "name": "to",
                    "type": "address"
                },
                {
                    "internalType": "uint256",
                    "name": "amount",
                    "type": "uint256"
                }
            ],
            "name": "transferFrom",
            "outputs": [
                {
                    "internalType": "bool",
                    "name": "",
                    "type": "bool"
                }
            ],
            "stateMutability": "nonpayable",
            "type": "function"
        },
        {
            "inputs": [
                {
                    "internalType": "address",
                    "name": "newOwner",
                    "type": "address"
                }
            ],
            "name": "transferOwnership",
            "outputs": [],
            "stateMutability": "nonpayable",
            "type": "function"
        },
        {
            "inputs": [
                {
                    "internalType": "uint256",
                    "name": "id_",
                    "type": "uint256"
                },
                {
                    "internalType": "address[]",
                    "name": "users_",
                    "type": "address[]"
                }
            ],
            "name": "updateSignatoryControlRequest",
            "outputs": [],
            "stateMutability": "nonpayable",
            "type": "function"
        },
        {
            "inputs": [
                {
                    "internalType": "uint256",
                    "name": "id_",
                    "type": "uint256"
                },
                {
                    "internalType": "uint256[]",
                    "name": "thresholds_",
                    "type": "uint256[]"
                }
            ],
            "name": "updateThresholdControlRequest",
            "outputs": [],
            "stateMutability": "nonpayable",
            "type": "function"
        },
        {
            "inputs": [
                {
                    "internalType": "uint256",
                    "name": "id_",
                    "type": "uint256"
                },
                {
                    "internalType": "uint256",
                    "name": "amount_",
                    "type": "uint256"
                },
                {
                    "internalType": "address",
                    "name": "to_",
                    "type": "address"
                }
            ],
            "name": "updateTokenSupplyControlRequest",
            "outputs": [],
            "stateMutability": "nonpayable",
            "type": "function"
        },
        {
            "inputs": [
                {
                    "internalType": "enum Common.RequestType",
                    "name": "reqType_",
                    "type": "uint8"
                },
                {
                    "internalType": "uint256",
                    "name": "id_",
                    "type": "uint256"
                },
                {
                    "internalType": "bool",
                    "name": "approval_",
                    "type": "bool"
                }
            ],
            "name": "vote",
            "outputs": [],
            "stateMutability": "nonpayable",
            "type": "function"
        }
    ],
    "bytecode": "60806040523480156200001157600080fd5b506200001c62000022565b620000e3565b600054610100900460ff16156200008f5760405162461bcd60e51b815260206004820152602760248201527f496e697469616c697a61626c653a20636f6e747261637420697320696e697469604482015266616c697a696e6760c81b606482015260840160405180910390fd5b60005460ff90811614620000e1576000805460ff191660ff9081179091556040519081527f7f26b83ff96e1f2b6a682f133852f6798a09c465da95921460cefb38474024989060200160405180910390a15b565b614cf980620000f36000396000f3fe608060405234801561001057600080fd5b50600436106101fb5760003560e01c8063715018a61161011a578063a9059cbb116100ad578063cdba49df1161007c578063cdba49df14610469578063d004f0f71461047c578063da3d21641461048f578063dd62ed3e146104af578063f2fde38b146104c257600080fd5b8063a9059cbb14610410578063c451c08d14610423578063c820f14614610443578063c93661941461045657600080fd5b80638da5cb5b116100e95780638da5cb5b146103c557806395d89b41146103e0578063a07addc0146103e8578063a457c2d7146103fd57600080fd5b8063715018a6146103775780637162da071461037f5780637b7b2c0e1461039f5780637d4ef73b146103b257600080fd5b8063313ce567116101925780635c975abb116101615780635c975abb1461031d57806361d22fae1461032857806364cc5eae1461033b57806370a082311461034e57600080fd5b8063313ce567146102c157806339509351146102d75780633d7c3e13146102ea5780634e3cdaeb146102fd57600080fd5b80631a6c5f90116101ce5780631a6c5f90146102735780631cf372ad1461028857806323b872dd1461029b578063250800cd146102ae57600080fd5b806306fdde0314610200578063095ea7b31461021e578063139dba551461024157806318160ddd14610261575b600080fd5b6102086104d5565b604051610215919061407f565b60405180910390f35b61023161022c3660046140e9565b610567565b6040519015158152602001610215565b61025461024f366004614122565b610581565b6040516102159190614144565b6035545b604051908152602001610215565b61028661028136600461425e565b610799565b005b6102866102963660046142b5565b61096a565b6102316102a93660046142d1565b610be5565b6102866102bc36600461431a565b610c09565b6101385460405160ff9091168152602001610215565b6102316102e53660046140e9565b610d43565b6102866102f8366004614362565b610d65565b61031061030b366004614397565b610ed4565b604051610215919061445e565b60655460ff16610231565b610286610336366004614501565b61109a565b6102866103493660046142b5565b61129d565b61026561035c366004614548565b6001600160a01b031660009081526033602052604090205490565b610286611ce4565b61039261038d366004614397565b611cf8565b6040516102159190614573565b6102866103ad366004614636565b611e46565b6102866103c0366004614673565b611f8a565b60c9546040516001600160a01b039091168152602001610215565b6102086120b4565b6103f06120c3565b6040516102159190614691565b61023161040b3660046140e9565b612124565b61023161041e3660046140e9565b61219f565b610436610431366004614397565b6121ad565b60405161021591906146a4565b610286610451366004614797565b61232f565b610286610464366004614835565b6124f9565b610286610477366004614884565b61260e565b61028661048a3660046140e9565b612f07565b6104a261049d366004614397565b612f54565b60405161021591906148c9565b6102656104bd366004614945565b6130c9565b6102866104d0366004614548565b6130f4565b6060603680546104e490614978565b80601f016020809104026020016040519081016040528092919081815260200182805461051090614978565b801561055d5780601f106105325761010080835404028352916020019161055d565b820191906000526020600020905b81548152906001019060200180831161054057829003601f168201915b5050505050905090565b60003361057581858561316d565b60019150505b92915050565b6060600060fd600084600481111561059b5761059b6143b0565b60048111156105ac576105ac6143b0565b81526020019081526020016000205467ffffffffffffffff8111156105d3576105d3614188565b6040519080825280602002602001820160405280156105fc578160200160208202803683370190505b50905060005b60fd6000856004811115610618576106186143b0565b6004811115610629576106296143b0565b815260200190815260200160002054811015610792576000846004811115610653576106536143b0565b036106c25760fe600082600181111561066e5761066e6143b0565b600181111561067f5761067f6143b0565b6001811115610690576106906143b0565b8152602001908152602001600020548282815181106106b1576106b16149b2565b602002602001018181525050610780565b60018460048111156106d6576106d66143b0565b036106f257610100600082600181111561066e5761066e6143b0565b6002846004811115610706576107066143b0565b0361072257610102600082600181111561066e5761066e6143b0565b6101046000828015610736576107366143b0565b8015610744576107446143b0565b8015610752576107526143b0565b815260200190815260200160002054828281518110610773576107736149b2565b6020026020010181815250505b8061078a816149de565b915050610602565b5092915050565b33600090815260fb602052604090205460ff166107d15760405162461bcd60e51b81526004016107c8906149f7565b60405180910390fd5b600082815261010560205260409020600301546001600160a01b03161561080a5760405162461bcd60e51b81526004016107c890614a1e565b60fd6000846004811115610820576108206143b0565b6004811115610831576108316143b0565b81526020019081526020016000205481511461088b5760405162461bcd60e51b8152602060048201526019602482015278494e56414c49445f5448524553484f4c445f434f554e54532160381b60448201526064016107c8565b60008281526101056020526040902082815560019081018054859260ff19909116908360048111156108bf576108bf6143b0565b021790555060008281526101056020908152604090912060018101805461ff001916905582516108f792600290920191840190613f58565b506000828152610105602052604081206003810180546001600160a01b03191633179055600501805460ff1916600183021790555033600060035b6040518581527f12c58aca4e9ebf5bbe5235f6dc667de7a3b7c4f8471be709f514e9e1a71cff259060200160405180910390a4505050565b33600090815260fb602052604090205460ff166109995760405162461bcd60e51b81526004016107c8906149f7565b6109a1613291565b60008260048111156109b5576109b56143b0565b03610a1557600081815260ff6020819052604090912060048101546006909101546109ec926001600160a01b0390921691166132ec565b600081815260ff6020526040902060060180546003919060ff19166001835b0217905550610b9a565b6001826004811115610a2957610a296143b0565b03610a85576000818152610101602052604090206001810154600390910154610a639161010090046001600160a01b03169060ff166132ec565b6000818152610101602052604090206003908101805460ff1916600183610a0b565b6002826004811115610a9957610a996143b0565b03610af2576000818152610103602052604090206003810154600590910154610ace916001600160a01b03169060ff166132ec565b60008181526101036020526040902060050180546003919060ff1916600183610a0b565b6003826004811115610b0657610b066143b0565b03610b5f576000818152610105602052604090206003810154600590910154610b3b916001600160a01b03169060ff166132ec565b60008181526101056020526040902060050180546003919060ff1916600183610a0b565b60405162461bcd60e51b815260206004820152601060248201526f554e4b4e4f574e5f524551554553542160801b60448201526064016107c8565b80826004811115610bad57610bad6143b0565b6040517fd4b68df9eef98410eb5ed4c779e2014889bc9e9f836af8bde49982ead4877d2690600090a3610be1600161010655565b5050565b600033610bf3858285613387565b610bfe858585613401565b506001949350505050565b33600090815260fb602052604090205460ff16610c385760405162461bcd60e51b81526004016107c8906149f7565b600083815260ff60205260409020600401546001600160a01b031615610c705760405162461bcd60e51b81526004016107c890614a1e565b600083815260ff6020526040902083815560019081018054869260ff19909116908381811115610ca257610ca26143b0565b0217905550600083815260ff60205260409020600281018390556003810180546001600160a01b03199081166001600160a01b03851617909155600482018054339216821790556006909101805460ff19169055846001811115610d0857610d086143b0565b60006040518681527f12c58aca4e9ebf5bbe5235f6dc667de7a3b7c4f8471be709f514e9e1a71cff259060200160405180910390a450505050565b600033610575818585610d5683836130c9565b610d609190614a48565b61316d565b33600090815260fb602052604090205460ff16610d945760405162461bcd60e51b81526004016107c8906149f7565b600083815260ff60205260409020600401546001600160a01b0316610dcb5760405162461bcd60e51b81526004016107c890614a1e565b600083815260ff60205260409020600401546001600160a01b03163314610e045760405162461bcd60e51b81526004016107c8906149f7565b600083815260ff60208190526040822060060154166003811115610e2a57610e2a6143b0565b14610e475760405162461bcd60e51b81526004016107c890614a5b565b600083815260ff60208181526040808420600281018790556003810180546001600160a01b0319166001600160a01b03881617905581518581528084019283905294889052929091529151610ea29260059092019190613fa3565b508260006040517f8ab39991fae765346c6afb7eb20811f1509a6c893ec0e1815ddfb656d280231890600090a3505050565b610edc613ff8565b600082815261010560205260409020600301546001600160a01b0316610f145760405162461bcd60e51b81526004016107c890614a1e565b60008281526101056020908152604091829020825160e08101909352805483526001810154909183019060ff166004811115610f5257610f526143b0565b6004811115610f6357610f636143b0565b81526001820154602090910190610100900460ff168015610f8657610f866143b0565b8015610f9457610f946143b0565b815260200160028201805480602002602001604051908101604052809291908181526020018280548015610fe757602002820191906000526020600020905b815481526020019060010190808311610fd3575b505050918352505060038201546001600160a01b0316602080830191909152600483018054604080518285028101850182528281529401939283018282801561105957602002820191906000526020600020905b81546001600160a01b0316815260019091019060200180831161103b575b5050509183525050600582015460209091019060ff166003811115611080576110806143b0565b6003811115611091576110916143b0565b90525092915050565b33600090815260fb602052604090205460ff166110c95760405162461bcd60e51b81526004016107c8906149f7565b600082815261010560205260409020600301546001600160a01b03166111015760405162461bcd60e51b81526004016107c890614a1e565b600082815261010560205260409020600301546001600160a01b0316331461113b5760405162461bcd60e51b81526004016107c8906149f7565b6000828152610105602052604081206005015460ff166003811115611162576111626143b0565b1461117f5760405162461bcd60e51b81526004016107c890614a5b565b6000828152610105602052604081206001015460fd919060ff1660048111156111aa576111aa6143b0565b60048111156111bb576111bb6143b0565b8152602001908152602001600020548151146112155760405162461bcd60e51b8152602060048201526019602482015278494e56414c49445f5448524553484f4c445f434f554e54532160381b60448201526064016107c8565b600082815261010560209081526040909120825161123b92600290920191840190613f58565b506040805160008082526020808301808552868352610105909152929020905161126b9260049092019190613fa3565b508160035b6040517f8ab39991fae765346c6afb7eb20811f1509a6c893ec0e1815ddfb656d280231890600090a35050565b60008260048111156112b1576112b16143b0565b036114ee57600081815260ff6020819052604090912060048101546006909101546112e8926001600160a01b0390921691166135b7565b600081815260ff6020819052604090912060019081015490911690811115611312576113126143b0565b60010361134a57600081815260ff602052604090206003810154600290910154611345916001600160a01b031690613636565b6114c6565b600081815260ff6020526040902060048101546003909101546001600160a01b039182169116036113a157600081815260ff602052604090206004810154600290910154611345916001600160a01b031690613703565b600081815260ff6020526040902060030154306001600160a01b03909116036113e157600081815260ff6020526040902060020154611345903090613703565b600081815260ff60205260409020600281015460038201546004909201549091611417916001600160a01b0391821691166130c9565b10156114655760405162461bcd60e51b815260206004820152601760248201527f494e53554646494349454e545f414c4c4f57414e43452100000000000000000060448201526064016107c8565b600081815260ff602052604090206003810154600482015460029092015461149a926001600160a01b03928316921690613387565b600081815260ff6020526040902060038101546002909101546114c6916001600160a01b031690613703565b600081815260ff6020526040902060060180546002919060ff19166001835b02179055505050565b6001826004811115611502576115026143b0565b036115a457600081815261010160205260409020600181015460039091015461153c9161010090046001600160a01b03169060ff166135b7565b60008181526101016020526040902060019081015460ff1690811115611564576115646143b0565b60000361157857611573613843565b611580565b61158061389d565b60008181526101016020526040902060030180546002919060ff19166001836114e5565b60028260048111156115b8576115b86143b0565b036119b15760008181526101036020526040902060038101546005909101546115ed916001600160a01b03169060ff166135b7565b60005b600082815261010360205260409020600201548110156119245760008281526101036020526040902060019081015460ff1690811115611632576116326143b0565b60010361178e57600082815261010360205260408120600201805460fb92919084908110611662576116626149b2565b60009182526020808320909101546001600160a01b0316835282019290925260400190205460ff16156116c45760405162461bcd60e51b815260206004820152600a602482015269455849534954494e472160b01b60448201526064016107c8565b600160fb6000610103600086815260200190815260200160002060020184815481106116f2576116f26149b2565b6000918252602080832091909101546001600160a01b031683528281019390935260409182018120805460ff1916941515949094179093558483526101039091529020600201805460fc91908390811061174e5761174e6149b2565b60009182526020808320909101548354600181018555938352912090910180546001600160a01b0319166001600160a01b03909216919091179055611912565b60fc546001106117d25760405162461bcd60e51b815260206004820152600f60248201526e4c4153545f5349474e41544f52592160881b60448201526064016107c8565b600082815261010360205260408120600201805460fb929190849081106117fb576117fb6149b2565b60009182526020808320909101546001600160a01b0316835282019290925260400190205460ff1661185a5760405162461bcd60e51b8152602060048201526008602482015267554e4b4e4f574e2160c01b60448201526064016107c8565b600082815261010360205260408120600201805460fb91839185908110611883576118836149b2565b6000918252602080832091909101546001600160a01b031683528281019390935260409182018120805460ff191694151594909417909355848352610103909152902060020180546118fc9160fc91849081106118e2576118e26149b2565b6000918252602090912001546001600160a01b03166138d6565b80516119109160fc91602090910190613fa3565b505b8061191c816149de565b9150506115f0565b5060008181526101036020526040902060058101805460ff19166002179055600190810154829160ff90911690811115611960576119606143b0565b7f7e514c236ce0c21fcabe88383d4dcf42e90a71538f6ecc3cb1241359cc2151d461010360008581526020019081526020016000206002016040516119a59190614a80565b60405180910390a35050565b60038260048111156119c5576119c56143b0565b03610b5f5760008181526101056020526040902060038101546005909101546119fa916001600160a01b03169060ff166135b7565b60005b6000828152610105602052604081206001015460fd919060ff166004811115611a2857611a286143b0565b6004811115611a3957611a396143b0565b815260200190815260200160002054811015611c66576000828152610105602052604081206001015460ff166004811115611a7657611a766143b0565b03611af857600082815261010560205260409020600201805482908110611a9f57611a9f6149b2565b906000526020600020015460fe6000836001811115611ac057611ac06143b0565b6001811115611ad157611ad16143b0565b6001811115611ae257611ae26143b0565b8152602081019190915260400160002055611c54565b60016000838152610105602052604090206001015460ff166004811115611b2157611b216143b0565b03611b6c57600082815261010560205260409020600201805482908110611b4a57611b4a6149b2565b90600052602060002001546101006000836001811115611ac057611ac06143b0565b60026000838152610105602052604090206001015460ff166004811115611b9557611b956143b0565b03611be057600082815261010560205260409020600201805482908110611bbe57611bbe6149b2565b90600052602060002001546101026000836001811115611ac057611ac06143b0565b600082815261010560205260409020600201805482908110611c0457611c046149b2565b90600052602060002001546101046000836000811115611c2657611c266143b0565b8015611c3457611c346143b0565b8015611c4257611c426143b0565b81526020810191909152604001600020555b80611c5e816149de565b9150506119fd565b5060008181526101056020526040902060058101805460ff1916600217905560010154819060ff166004811115611c9f57611c9f6143b0565b7f374689f34df0bbe3adf83d2b6c5271d938df5fd3604e8074c28378ff0b4eae0061010560008581526020019081526020016000206002016040516119a59190614ac4565b611cec613a40565b611cf66000613a9a565b565b6040805160a08101825260008082526020820181905291810182905260608082015260808101919091526000828152610101602052604090206001015461010090046001600160a01b0316611d5f5760405162461bcd60e51b81526004016107c890614a1e565b60008281526101016020908152604091829020825160a0810190935280548352600180820154919284019160ff1690811115611d9d57611d9d6143b0565b6001811115611dae57611dae6143b0565b8152600182015461010090046001600160a01b03166020808301919091526002830180546040805182850281018501825282815294019392830182828015611e1f57602002820191906000526020600020905b81546001600160a01b03168152600190910190602001808311611e01575b505050918352505060038281015460209092019160ff1690811115611080576110806143b0565b33600090815260fb602052604090205460ff16611e755760405162461bcd60e51b81526004016107c8906149f7565b600082815261010360205260409020600301546001600160a01b0316611ead5760405162461bcd60e51b81526004016107c890614a1e565b600082815261010360205260409020600301546001600160a01b03163314611ee75760405162461bcd60e51b81526004016107c8906149f7565b6000828152610103602052604081206005015460ff166003811115611f0e57611f0e6143b0565b14611f2b5760405162461bcd60e51b81526004016107c890614a5b565b6000828152610103602090815260409091208251611f5192600290920191840190613fa3565b5060408051600080825260208083018085528683526101039091529290209051611f819260049092019190613fa3565b50816002611270565b33600090815260fb602052604090205460ff16611fb95760405162461bcd60e51b81526004016107c8906149f7565b6000818152610101602052604090206001015461010090046001600160a01b031615611ff75760405162461bcd60e51b81526004016107c890614a1e565b60008181526101016020526040902081815560019081018054849260ff1990911690838181111561202a5761202a6143b0565b021790555060008181526101016020526040902060018082018054610100600160a81b031916336101008102919091179091556003909201805460ff19169055839081111561207b5761207b6143b0565b60016040518481527f12c58aca4e9ebf5bbe5235f6dc667de7a3b7c4f8471be709f514e9e1a71cff259060200160405180910390a45050565b6060603780546104e490614978565b606060fc80548060200260200160405190810160405280929190818152602001828054801561055d57602002820191906000526020600020905b81546001600160a01b031681526001909101906020018083116120fd575050505050905090565b6000338161213282866130c9565b9050838110156121925760405162461bcd60e51b815260206004820152602560248201527f45524332303a2064656372656173656420616c6c6f77616e63652062656c6f77604482015264207a65726f60d81b60648201526084016107c8565b610bfe828686840361316d565b600033610575818585613401565b6121b5614050565b600082815261010360205260409020600301546001600160a01b03166121ed5760405162461bcd60e51b81526004016107c890614a1e565b60008281526101036020908152604091829020825160c0810190935280548352600180820154919284019160ff169081111561222b5761222b6143b0565b600181111561223c5761223c6143b0565b815260200160028201805480602002602001604051908101604052809291908181526020018280548015610fe757602002820191906000526020600020905b81546001600160a01b0316815260019091019060200180831161227b57505050918352505060038201546001600160a01b03166020808301919091526004830180546040805182850281018501825282815294019392830182828015611059576020028201919060005260206000209081546001600160a01b0316815260019091019060200180831161103b575050509183525050600582015460209091019060ff166003811115611080576110806143b0565b600054610100900460ff161580801561234f5750600054600160ff909116105b806123695750303b158015612369575060005460ff166001145b6123cc5760405162461bcd60e51b815260206004820152602e60248201527f496e697469616c697a61626c653a20636f6e747261637420697320616c72656160448201526d191e481a5b9a5d1a585b1a5e995960921b60648201526084016107c8565b6000805460ff1916600117905580156123ef576000805461ff0019166101001790555b6123f98686613aec565b612401613b1d565b612409613b4c565b6001600160a01b03808316600081815260fb60205260408120805460ff1916600190811790915560fc805491820181559091527f371f36870d18f32a11fea0f144b021c8b407bb50f8e0267c711123f454b963c00180546001600160a01b03191690911790556101388054918516610100026001600160a81b031990921660ff87161791909117905561249a613b7b565b6124a2613c34565b6124ab82613a9a565b80156124f1576000805461ff0019169055604051600181527f7f26b83ff96e1f2b6a682f133852f6798a09c465da95921460cefb38474024989060200160405180910390a15b505050505050565b33600090815260fb602052604090205460ff166125285760405162461bcd60e51b81526004016107c8906149f7565b600082815261010360205260409020600301546001600160a01b0316156125615760405162461bcd60e51b81526004016107c890614a1e565b60008281526101036020526040902082815560019081018054859260ff19909116908381811115612594576125946143b0565b021790555060008281526101036020908152604090912082516125bf92600290920191840190613fa3565b506000828152610103602052604081206003810180546001600160a01b03191633179055600501805460ff1916600183021790555033836001811115612607576126076143b0565b6002610932565b33600090815260fb602052604090205460ff1661263d5760405162461bcd60e51b81526004016107c8906149f7565b612645613291565b6000836004811115612659576126596143b0565b0361286157600082815260ff602081905260409091206004810154600690910154612690926001600160a01b039092169116613d23565b600082815260ff6020908152604080832060050180548251818502810185019093528083526126fd938301828280156126f257602002820191906000526020600020905b81546001600160a01b031681526001909101906020018083116126d4575b505050505033613d49565b905081156127595780156127235760405162461bcd60e51b81526004016107c890614aff565b600083815260ff602090815260408220600501805460018101825590835291200180546001600160a01b031916331790556127bc565b806127765760405162461bcd60e51b81526004016107c890614b22565b600083815260ff6020526040812061279190600501336138d6565b600085815260ff6020908152604090912082519293506127b992600590910191840190613fa3565b50505b600083815260ff60208190526040822060019081015460fe939216908111156127e7576127e76143b0565b60018111156127f8576127f86143b0565b8152602080820192909252604090810160009081205486825260ff9093522060050154101561282857600061282b565b60015b600084815260ff60205260409020600601805460ff19166001836003811115612856576128566143b0565b021790555050612eae565b6001836004811115612875576128756143b0565b03612a845760008281526101016020526040902060018101546003909101546128af9161010090046001600160a01b03169060ff16613d23565b600082815261010160209081526040808320600201805482518185028101850190935280835261291b938301828280156126f2576020028201919060005260206000209081546001600160a01b031681526001909101906020018083116126d457505050505033613d49565b905081156129785780156129415760405162461bcd60e51b81526004016107c890614aff565b6000838152610101602090815260408220600201805460018101825590835291200180546001600160a01b031916331790556129dd565b806129955760405162461bcd60e51b81526004016107c890614b22565b6000838152610101602052604081206129b190600201336138d6565b60008581526101016020908152604090912082519293506129da92600290910191840190613fa3565b50505b600083815261010160205260408120600190810154610100929160ff90911690811115612a0c57612a0c6143b0565b6001811115612a1d57612a1d6143b0565b8152602080820192909252604090810160009081205486825261010190935220600201541015612a4e576000612a51565b60015b60008481526101016020526040902060039081018054909160ff19909116906001908490811115612856576128566143b0565b6002836004811115612a9857612a986143b0565b03612c9b576000828152610103602052604090206003810154600590910154612acd916001600160a01b03169060ff16613d23565b6000828152610103602090815260408083206004018054825181850281018501909352808352612b39938301828280156126f2576020028201919060005260206000209081546001600160a01b031681526001909101906020018083116126d457505050505033613d49565b90508115612b96578015612b5f5760405162461bcd60e51b81526004016107c890614aff565b6000838152610103602090815260408220600401805460018101825590835291200180546001600160a01b03191633179055612bfb565b80612bb35760405162461bcd60e51b81526004016107c890614b22565b600083815261010360205260409020612bcf90600401336138d6565b61010360008581526020019081526020016000206004019080519060200190612bf9929190613fa3565b505b600083815261010360205260408120600190810154610102929160ff90911690811115612c2a57612c2a6143b0565b6001811115612c3b57612c3b6143b0565b8152602080820192909252604090810160009081205486825261010390935220600401541015612c6c576000612c6f565b60015b600084815261010360205260409020600501805460ff19166001836003811115612856576128566143b0565b6003836004811115612caf57612caf6143b0565b03610b5f576000828152610105602052604090206003810154600590910154612ce4916001600160a01b03169060ff16613d23565b6000828152610105602090815260408083206004018054825181850281018501909352808352612d50938301828280156126f2576020028201919060005260206000209081546001600160a01b031681526001909101906020018083116126d457505050505033613d49565b90508115612dad578015612d765760405162461bcd60e51b81526004016107c890614aff565b6000838152610105602090815260408220600401805460018101825590835291200180546001600160a01b03191633179055612e12565b80612dca5760405162461bcd60e51b81526004016107c890614b22565b600083815261010560205260409020612de690600401336138d6565b61010560008581526020019081526020016000206004019080519060200190612e10929190613fa3565b505b600083815261010560205260408120600101546101049190610100900460ff168015612e4057612e406143b0565b8015612e4e57612e4e6143b0565b8152602080820192909252604090810160009081205486825261010590935220600401541015612e7f576000612e82565b60015b600084815261010560205260409020600501805460ff19166001836003811115612856576128566143b0565b3382846004811115612ec257612ec26143b0565b60405184151581527fdca74fe419e42e4b1192a5ed6d15146d8a2c79be70e858272e4137be529458139060200160405180910390a4612f02600161010655565b505050565b612f0f613291565b6101385461010090046001600160a01b03163314612f3f5760405162461bcd60e51b81526004016107c8906149f7565b612f498282613636565b610be1600161010655565b6040805160e08101825260008082526020820181905291810182905260608082018390526080820183905260a082015260c0810191909152600082815260ff60205260409020600401546001600160a01b0316612fc35760405162461bcd60e51b81526004016107c890614a1e565b600082815260ff6020818152604092839020835160e08101909452805484526001808201549193928501929190911690811115613002576130026143b0565b6001811115613013576130136143b0565b8152600282015460208083019190915260038301546001600160a01b039081166040808501919091526004850154909116606084015260058401805482518185028101850190935280835260809094019391929091908301828280156130a257602002820191906000526020600020905b81546001600160a01b03168152600190910190602001808311613084575b5050509183525050600682015460209091019060ff166003811115611080576110806143b0565b6001600160a01b03918216600090815260346020908152604080832093909416825291909152205490565b6130fc613a40565b6001600160a01b0381166131615760405162461bcd60e51b815260206004820152602660248201527f4f776e61626c653a206e6577206f776e657220697320746865207a65726f206160448201526564647265737360d01b60648201526084016107c8565b61316a81613a9a565b50565b6001600160a01b0383166131cf5760405162461bcd60e51b8152602060048201526024808201527f45524332303a20617070726f76652066726f6d20746865207a65726f206164646044820152637265737360e01b60648201526084016107c8565b6001600160a01b0382166132305760405162461bcd60e51b815260206004820152602260248201527f45524332303a20617070726f766520746f20746865207a65726f206164647265604482015261737360f01b60648201526084016107c8565b6001600160a01b0383811660008181526034602090815260408083209487168084529482529182902085905590518481527f8c5be1e5ebec7d5bd14f71427d1e84f3dd0314c0f7b2291e5b200ac8c7c3b925910160405180910390a3505050565b600261010654036132e45760405162461bcd60e51b815260206004820152601f60248201527f5265656e7472616e637947756172643a207265656e7472616e742063616c6c0060448201526064016107c8565b600261010655565b6001600160a01b0382166133125760405162461bcd60e51b81526004016107c890614a1e565b6001600160a01b038216331461333a5760405162461bcd60e51b81526004016107c8906149f7565b600081600381111561334e5761334e6143b0565b148061336b57506001816003811115613369576133696143b0565b145b610be15760405162461bcd60e51b81526004016107c890614a5b565b600061339384846130c9565b905060001981146133fb57818110156133ee5760405162461bcd60e51b815260206004820152601d60248201527f45524332303a20696e73756666696369656e7420616c6c6f77616e636500000060448201526064016107c8565b6133fb848484840361316d565b50505050565b6001600160a01b0383166134655760405162461bcd60e51b815260206004820152602560248201527f45524332303a207472616e736665722066726f6d20746865207a65726f206164604482015264647265737360d81b60648201526084016107c8565b6001600160a01b0382166134c75760405162461bcd60e51b815260206004820152602360248201527f45524332303a207472616e7366657220746f20746865207a65726f206164647260448201526265737360e81b60648201526084016107c8565b6134d2838383613dad565b6001600160a01b0383166000908152603360205260409020548181101561354a5760405162461bcd60e51b815260206004820152602660248201527f45524332303a207472616e7366657220616d6f756e7420657863656564732062604482015265616c616e636560d01b60648201526084016107c8565b6001600160a01b0380851660008181526033602052604080822086860390559286168082529083902080548601905591517fddf252ad1be2c89b69c2b068fc378daa952ba7f163c4a11628f55a4df523b3ef906135aa9086815260200190565b60405180910390a36133fb565b6001600160a01b0382166135dd5760405162461bcd60e51b81526004016107c890614a1e565b6001600160a01b03821633146136055760405162461bcd60e51b81526004016107c8906149f7565b6001816003811115613619576136196143b0565b14610be15760405162461bcd60e51b81526004016107c890614b22565b6001600160a01b03821661368c5760405162461bcd60e51b815260206004820152601f60248201527f45524332303a206d696e7420746f20746865207a65726f20616464726573730060448201526064016107c8565b61369860008383613dad565b80603560008282546136aa9190614a48565b90915550506001600160a01b0382166000818152603360209081526040808320805486019055518481527fddf252ad1be2c89b69c2b068fc378daa952ba7f163c4a11628f55a4df523b3ef910160405180910390a35050565b6001600160a01b0382166137635760405162461bcd60e51b815260206004820152602160248201527f45524332303a206275726e2066726f6d20746865207a65726f206164647265736044820152607360f81b60648201526084016107c8565b61376f82600083613dad565b6001600160a01b038216600090815260336020526040902054818110156137e35760405162461bcd60e51b815260206004820152602260248201527f45524332303a206275726e20616d6f756e7420657863656564732062616c616e604482015261636560f01b60648201526084016107c8565b6001600160a01b03831660008181526033602090815260408083208686039055603580548790039055518581529192917fddf252ad1be2c89b69c2b068fc378daa952ba7f163c4a11628f55a4df523b3ef910160405180910390a3505050565b61384b613dc0565b6065805460ff191660011790557f62e78cea01bee320cd4e420270b5ea74000d11b0c9f74754ebdbfc544b05a2586138803390565b6040516001600160a01b03909116815260200160405180910390a1565b6138a5613e06565b6065805460ff191690557f5db9ee0a495bf2e6ff9c91a7834c1ba4fdd244a5e8aa4e537bd38aeae4b073aa33613880565b606060005b83548110156139e157826001600160a01b0316848281548110613900576139006149b2565b6000918252602090912001546001600160a01b0316036139cf578354849061392a90600190614b49565b8154811061393a5761393a6149b2565b9060005260206000200160009054906101000a90046001600160a01b031684828154811061396a5761396a6149b2565b9060005260206000200160006101000a8154816001600160a01b0302191690836001600160a01b03160217905550838054806139a8576139a8614b5c565b600082815260209020810160001990810180546001600160a01b03191690550190556139e1565b806139d9816149de565b9150506138db565b50825460408051602080840282018101909252828152918591830182828015613a3357602002820191906000526020600020905b81546001600160a01b03168152600190910190602001808311613a15575b5050505050905092915050565b60c9546001600160a01b03163314611cf65760405162461bcd60e51b815260206004820181905260248201527f4f776e61626c653a2063616c6c6572206973206e6f7420746865206f776e657260448201526064016107c8565b60c980546001600160a01b038381166001600160a01b0319831681179093556040519116919082907f8be0079c531659141344cd1fd0a4f28419497f9722a3daafe3b4186f6b6457e090600090a35050565b600054610100900460ff16613b135760405162461bcd60e51b81526004016107c890614b72565b610be18282613e4f565b600054610100900460ff16613b445760405162461bcd60e51b81526004016107c890614b72565b611cf6613e8f565b600054610100900460ff16613b735760405162461bcd60e51b81526004016107c890614b72565b611cf6613ec2565b60fd602081905260027fc34a738ec333e394a3927794cadc6dd0eb7d9eed0999d1e55021ea223ac362cc8190557f6443157f7701a627e53184b74fce0d403f4bf9bc1aaa0bc17c9ee17e10ec8b8f8190557fef9a6077cbcbcf7bec11d47569fea4be738d880200c72c7271b993ae0f57e37e8190556003600090815260017fddec8a35231c466760a2fede23c08a34280dd1cd9b2da7e3dd8e38d773292cc35590919060045b8152602081019190915260400160002055565b60017f32796e36004994222362c2f9423d5e208bb848170964890784a8d59ed40f50af8190557f457c8a48b4735f56b938837eb0a8a5f9c55f23c1a85767ce3b65c3e59d3d32b78190557f1c215b54eec9ee6aca29c851c685652f7166e29c4e460f5b894f8abee449ad3b8190557f0f37cc93c7327dd0773c9bad1b9130cb34ac422da3ad8b8ae014d912837518708190556101026020527f902d1eb9cb7bf5a8087a0aabaf00b340029088a7a2af68d406d96c3be8e809b681905560008080527f565a22c1af7fcc038f06206699a6bd0ad8c85d23dafe9aebac3e0df68e8fb3208290556101049080613c21565b6001600160a01b03821661333a5760405162461bcd60e51b81526004016107c890614a1e565b60008060005b8451811015613da557836001600160a01b0316858281518110613d7457613d746149b2565b60200260200101516001600160a01b031603613d935760019150613da5565b80613d9d816149de565b915050613d4f565b509392505050565b613db5613dc0565b612f02838383613ef2565b60655460ff1615611cf65760405162461bcd60e51b815260206004820152601060248201526f14185d5cd8589b194e881c185d5cd95960821b60448201526064016107c8565b60655460ff16611cf65760405162461bcd60e51b815260206004820152601460248201527314185d5cd8589b194e881b9bdd081c185d5cd95960621b60448201526064016107c8565b600054610100900460ff16613e765760405162461bcd60e51b81526004016107c890614b72565b6036613e828382614c03565b506037612f028282614c03565b600054610100900460ff16613eb65760405162461bcd60e51b81526004016107c890614b72565b6065805460ff19169055565b600054610100900460ff16613ee95760405162461bcd60e51b81526004016107c890614b72565b611cf633613a9a565b60655460ff1615612f025760405162461bcd60e51b815260206004820152602a60248201527f45524332305061757361626c653a20746f6b656e207472616e736665722077686044820152691a5b19481c185d5cd95960b21b60648201526084016107c8565b828054828255906000526020600020908101928215613f93579160200282015b82811115613f93578251825591602001919060010190613f78565b50613f9f92915061406a565b5090565b828054828255906000526020600020908101928215613f93579160200282015b82811115613f9357825182546001600160a01b0319166001600160a01b03909116178255602090920191600190910190613fc3565b6040805160e0810190915260008082526020820190815260200160005b81526020016060815260200160006001600160a01b03168152602001606081526020016000600381111561404b5761404b6143b0565b905290565b6040805160c0810190915260008082526020820190614015565b5b80821115613f9f576000815560010161406b565b600060208083528351808285015260005b818110156140ac57858101830151858201604001528201614090565b506000604082860101526040601f19601f8301168501019250505092915050565b80356001600160a01b03811681146140e457600080fd5b919050565b600080604083850312156140fc57600080fd5b614105836140cd565b946020939093013593505050565b8035600581106140e457600080fd5b60006020828403121561413457600080fd5b61413d82614113565b9392505050565b6020808252825182820181905260009190848201906040850190845b8181101561417c57835183529284019291840191600101614160565b50909695505050505050565b634e487b7160e01b600052604160045260246000fd5b604051601f8201601f1916810167ffffffffffffffff811182821017156141c7576141c7614188565b604052919050565b600067ffffffffffffffff8211156141e9576141e9614188565b5060051b60200190565b600082601f83011261420457600080fd5b81356020614219614214836141cf565b61419e565b82815260059290921b8401810191818101908684111561423857600080fd5b8286015b84811015614253578035835291830191830161423c565b509695505050505050565b60008060006060848603121561427357600080fd5b61427c84614113565b925060208401359150604084013567ffffffffffffffff81111561429f57600080fd5b6142ab868287016141f3565b9150509250925092565b600080604083850312156142c857600080fd5b61410583614113565b6000806000606084860312156142e657600080fd5b6142ef846140cd565b92506142fd602085016140cd565b9150604084013590509250925092565b6002811061316a57600080fd5b6000806000806080858703121561433057600080fd5b843561433b8161430d565b93506020850135925060408501359150614357606086016140cd565b905092959194509250565b60008060006060848603121561437757600080fd5b833592506020840135915061438e604085016140cd565b90509250925092565b6000602082840312156143a957600080fd5b5035919050565b634e487b7160e01b600052602160045260246000fd5b600181106143d6576143d66143b0565b9052565b600081518084526020808501945080840160005b8381101561440a578151875295820195908201906001016143ee565b509495945050505050565b600081518084526020808501945080840160005b8381101561440a5781516001600160a01b031687529582019590820190600101614429565b600481106143d6576143d66143b0565b60208152815160208201526000602083015160058110614480576144806143b0565b80604084015250604083015161449960608401826143c6565b50606083015160e060808401526144b46101008401826143da565b905060808401516144d060a08501826001600160a01b03169052565b5060a0840151838203601f190160c08501526144ec8282614415565b91505060c0840151613da560e085018261444e565b6000806040838503121561451457600080fd5b82359150602083013567ffffffffffffffff81111561453257600080fd5b61453e858286016141f3565b9150509250929050565b60006020828403121561455a57600080fd5b61413d826140cd565b6002811061316a5761316a6143b0565b60208152815160208201526000602083015161458e81614563565b8060408401525060018060a01b036040840151166060830152606083015160a060808401526145c060c0840182614415565b90506080840151613da560a085018261444e565b600082601f8301126145e557600080fd5b813560206145f5614214836141cf565b82815260059290921b8401810191818101908684111561461457600080fd5b8286015b8481101561425357614629816140cd565b8352918301918301614618565b6000806040838503121561464957600080fd5b82359150602083013567ffffffffffffffff81111561466757600080fd5b61453e858286016145d4565b6000806040838503121561468657600080fd5b82356141058161430d565b60208152600061413d6020830184614415565b6020815281516020820152600060208301516146bf81614563565b80604084015250604083015160c060608401526146df60e0840182614415565b60608501516001600160a01b0316608085810191909152850151848203601f190160a08601529091506147128282614415565b91505060a0840151613da560c085018261444e565b600082601f83011261473857600080fd5b813567ffffffffffffffff81111561475257614752614188565b614765601f8201601f191660200161419e565b81815284602083860101111561477a57600080fd5b816020850160208301376000918101602001919091529392505050565b600080600080600060a086880312156147af57600080fd5b853567ffffffffffffffff808211156147c757600080fd5b6147d389838a01614727565b965060208801359150808211156147e957600080fd5b506147f688828901614727565b945050604086013560ff8116811461480d57600080fd5b925061481b606087016140cd565b9150614829608087016140cd565b90509295509295909350565b60008060006060848603121561484a57600080fd5b83356148558161430d565b925060208401359150604084013567ffffffffffffffff81111561487857600080fd5b6142ab868287016145d4565b60008060006060848603121561489957600080fd5b6148a284614113565b925060208401359150604084013580151581146148be57600080fd5b809150509250925092565b6020815281516020820152600060208301516148e481614563565b8060408401525060408301516060830152606083015160018060a01b0380821660808501528060808601511660a0850152505060a083015160e060c0840152614931610100840182614415565b905060c0840151613da560e085018261444e565b6000806040838503121561495857600080fd5b614961836140cd565b915061496f602084016140cd565b90509250929050565b600181811c9082168061498c57607f821691505b6020821081036149ac57634e487b7160e01b600052602260045260246000fd5b50919050565b634e487b7160e01b600052603260045260246000fd5b634e487b7160e01b600052601160045260246000fd5b6000600182016149f0576149f06149c8565b5060010190565b6020808252600d908201526c554e415554484f52495a45442160981b604082015260600190565b60208082526010908201526f494e56414c49445f524551554553542160801b604082015260600190565b8082018082111561057b5761057b6149c8565b6020808252600b908201526a4e4f545f4143544956452160a81b604082015260600190565b6020808252825482820181905260008481528281209092916040850190845b8181101561417c5783546001600160a01b031683526001938401939285019201614a9f565b6020808252825482820181905260008481528281209092916040850190845b8181101561417c57835483526001938401939285019201614ae3565b602080825260099082015268415050524f5645442160b81b604082015260600190565b6020808252600d908201526c4e4f545f415050524f5645442160981b604082015260600190565b8181038181111561057b5761057b6149c8565b634e487b7160e01b600052603160045260246000fd5b6020808252602b908201527f496e697469616c697a61626c653a20636f6e7472616374206973206e6f74206960408201526a6e697469616c697a696e6760a81b606082015260800190565b601f821115612f0257600081815260208120601f850160051c81016020861015614be45750805b601f850160051c820191505b818110156124f157828155600101614bf0565b815167ffffffffffffffff811115614c1d57614c1d614188565b614c3181614c2b8454614978565b84614bbd565b602080601f831160018114614c665760008415614c4e5750858301515b600019600386901b1c1916600185901b1785556124f1565b600085815260208120601f198616915b82811015614c9557888601518255948401946001909101908401614c76565b5085821015614cb35787850151600019600388901b60f8161c191681555b5050505050600190811b0190555056fea2646970667358221220604f959ac958f4b56970d3565672354edd8a58202003cf5b46096388c5a5e1da64736f6c63430008110033",
    "sourcePath": "/home/varun/Documents/python/Contracts/contracts/StableCoin.sol",
    "compiler": {
        "name": "solc",
        "version": "0.8.17+commit.8df45f5f"
    },
    "functionHashes": {
        "allowance(address,address)": "dd62ed3e",
        "approve(address,uint256)": "095ea7b3",
        "balanceOf(address)": "70a08231",
        "cancelRequest(uint8,uint256)": "1cf372ad",
        "createSignatoryControlRequest(uint8,uint256,address[])": "c9366194",
        "createThresholdControlRequest(uint8,uint256,uint256[])": "1a6c5f90",
        "createTokenSupplyControlRequest(uint8,uint256,uint256,address)": "250800cd",
        "createTransactionControlRequest(uint8,uint256)": "7d4ef73b",
        "decimals()": "313ce567",
        "decreaseAllowance(address,uint256)": "a457c2d7",
        "execute(uint8,uint256)": "64cc5eae",
        "getSignatoryControlRequest(uint256)": "c451c08d",
        "getSignatoryList()": "a07addc0",
        "getThresholdControlRequest(uint256)": "4e3cdaeb",
        "getThresholds(uint8)": "139dba55",
        "getTokenSupplyControlRequest(uint256)": "da3d2164",
        "getTransactionControlRequest(uint256)": "7162da07",
        "increaseAllowance(address,uint256)": "39509351",
        "initialize(string,string,uint8,address,address)": "c820f146",
        "name()": "06fdde03",
        "owner()": "8da5cb5b",
        "paused()": "5c975abb",
        "renounceOwnership()": "715018a6",
        "swap(address,uint256)": "d004f0f7",
        "symbol()": "95d89b41",
        "totalSupply()": "18160ddd",
        "transfer(address,uint256)": "a9059cbb",
        "transferFrom(address,address,uint256)": "23b872dd",
        "transferOwnership(address)": "f2fde38b",
        "updateSignatoryControlRequest(uint256,address[])": "7b7b2c0e",
        "updateThresholdControlRequest(uint256,uint256[])": "61d22fae",
        "updateTokenSupplyControlRequest(uint256,uint256,address)": "3d7c3e13",
        "vote(uint8,uint256,bool)": "cdba49df"
    },
    "gasEstimates": {
        "creation": {
            "codeDepositCost": "3941000",
            "executionCost": "34077",
            "totalCost": "3975077"
        },
        "external": {
            "allowance(address,address)": "infinite",
            "approve(address,uint256)": "24674",
            "balanceOf(address)": "2648",
            "cancelRequest(uint8,uint256)": "infinite",
            "createSignatoryControlRequest(uint8,uint256,address[])": "infinite",
            "createThresholdControlRequest(uint8,uint256,uint256[])": "infinite",
            "createTokenSupplyControlRequest(uint8,uint256,uint256,address)": "148526",
            "createTransactionControlRequest(uint8,uint256)": "102060",
            "decimals()": "2335",
            "decreaseAllowance(address,uint256)": "27061",
            "execute(uint8,uint256)": "infinite",
            "getSignatoryControlRequest(uint256)": "infinite",
            "getSignatoryList()": "infinite",
            "getThresholdControlRequest(uint256)": "infinite",
            "getThresholds(uint8)": "infinite",
            "getTokenSupplyControlRequest(uint256)": "infinite",
            "getTransactionControlRequest(uint256)": "infinite",
            "increaseAllowance(address,uint256)": "infinite",
            "initialize(string,string,uint8,address,address)": "infinite",
            "name()": "infinite",
            "owner()": "2346",
            "paused()": "2349",
            "renounceOwnership()": "infinite",
            "swap(address,uint256)": "infinite",
            "symbol()": "infinite",
            "totalSupply()": "2394",
            "transfer(address,uint256)": "infinite",
            "transferFrom(address,address,uint256)": "infinite",
            "transferOwnership(address)": "28468",
            "updateSignatoryControlRequest(uint256,address[])": "infinite",
            "updateThresholdControlRequest(uint256,uint256[])": "infinite",
            "updateTokenSupplyControlRequest(uint256,uint256,address)": "infinite",
            "vote(uint8,uint256,bool)": "infinite"
        },
        "internal": {
            "_beforeTokenTransfer(address,address,uint256)": "infinite",
            "_setDefaultThresholds()": "154892"
        }
    }
}